{"contracts/AadhaarVault.sol":{"AadhaarVault":{"abi":[{"anonymous":false,"inputs":[{"indexed":true,"internalType":"bytes32","name":"recordId","type":"bytes32"},{"indexed":true,"internalType":"address","name":"verifier","type":"address"}],"name":"ApplicationRejected","type":"event"},{"anonymous":false,"inputs":[{"indexed":true,"internalType":"bytes32","name":"recordId","type":"bytes32"},{"indexed":false,"internalType":"bytes32","name":"hash","type":"bytes32"},{"indexed":false,"internalType":"string","name":"cid","type":"string"},{"indexed":true,"internalType":"address","name":"applicant","type":"address"}],"name":"ApplicationSubmitted","type":"event"},{"anonymous":false,"inputs":[{"indexed":true,"internalType":"bytes32","name":"recordId","type":"bytes32"},{"indexed":true,"internalType":"address","name":"verifier","type":"address"}],"name":"ApplicationVerified","type":"event"},{"inputs":[{"internalType":"bytes32","name":"","type":"bytes32"}],"name":"applications","outputs":[{"internalType":"bytes32","name":"recordId","type":"bytes32"},{"internalType":"bytes32","name":"hash","type":"bytes32"},{"internalType":"string","name":"cid","type":"string"},{"internalType":"address","name":"applicant","type":"address"},{"internalType":"address","name":"verifier","type":"address"},{"internalType":"enum AadhaarVault.Status","name":"status","type":"uint8"},{"internalType":"uint256","name":"timestamp","type":"uint256"}],"stateMutability":"view","type":"function"},{"inputs":[{"internalType":"bytes32","name":"recordId","type":"bytes32"}],"name":"getApplication","outputs":[{"internalType":"bytes32","name":"","type":"bytes32"},{"internalType":"bytes32","name":"","type":"bytes32"},{"internalType":"string","name":"","type":"string"},{"internalType":"address","name":"","type":"address"},{"internalType":"address","name":"","type":"address"},{"internalType":"uint8","name":"","type":"uint8"},{"internalType":"uint256","name":"","type":"uint256"}],"stateMutability":"view","type":"function"},{"inputs":[{"internalType":"bytes32","name":"recordId","type":"bytes32"}],"name":"rejectApplication","outputs":[],"stateMutability":"nonpayable","type":"function"},{"inputs":[{"internalType":"bytes32","name":"recordId","type":"bytes32"},{"internalType":"bytes32","name":"hash","type":"bytes32"},{"internalType":"string","name":"cid","type":"string"}],"name":"submitApplication","outputs":[],"stateMutability":"nonpayable","type":"function"},{"inputs":[{"internalType":"bytes32","name":"recordId","type":"bytes32"}],"name":"verifyApplication","outputs":[],"stateMutability":"nonpayable","type":"function"}],"evm":{"bytecode":{"linkReferences":{},"object":"608060405234801561001057600080fd5b50610ee0806100206000396000f3fe608060405234801561001057600080fd5b50600436106100575760003560e01c8063079c26071461005c5780634cafa121146100785780638cd8349a146100ae578063bc506f64146100ca578063fcda35f914610100575b600080fd5b610076600480360381019061007191906107a1565b61011c565b005b610092600480360381019061008d9190610815565b61026f565b6040516100a597969594939291906109b2565b60405180910390f35b6100c860048036038101906100c39190610815565b610386565b005b6100e460048036038101906100df9190610815565b61049d565b6040516100f79796959493929190610a44565b60405180910390f35b61011a60048036038101906101159190610815565b6105e5565b005b600080600086815260200190815260200160002090508481600001819055508381600101819055508282826002019182610157929190610d00565b50338160030160006101000a81548173ffffffffffffffffffffffffffffffffffffffff021916908373ffffffffffffffffffffffffffffffffffffffff16021790555060008160040160006101000a81548173ffffffffffffffffffffffffffffffffffffffff021916908373ffffffffffffffffffffffffffffffffffffffff16021790555060008160040160146101000a81548160ff0219169083600281111561020757610206610922565b5b02179055504281600501819055503373ffffffffffffffffffffffffffffffffffffffff16857fd97b75d1116cbf9e5344b022dbd767650a069b286ebebd04e57c79a18718b56586868660405161026093929190610e0c565b60405180910390a35050505050565b600060205280600052604060002060009150905080600001549080600101549080600201805461029e90610b23565b80601f01602080910402602001604051908101604052809291908181526020018280546102ca90610b23565b80156103175780601f106102ec57610100808354040283529160200191610317565b820191906000526020600020905b8154815290600101906020018083116102fa57829003601f168201915b5050505050908060030160009054906101000a900473ffffffffffffffffffffffffffffffffffffffff16908060040160009054906101000a900473ffffffffffffffffffffffffffffffffffffffff16908060040160149054906101000a900460ff16908060050154905087565b600080600083815260200190815260200160002090506000801b8160000154036103e5576040517f08c379a00000000000000000000000000000000000000000000000000000000081526004016103dc90610e8a565b60405180910390fd5b60018160040160146101000a81548160ff0219169083600281111561040d5761040c610922565b5b0217905550338160040160006101000a81548173ffffffffffffffffffffffffffffffffffffffff021916908373ffffffffffffffffffffffffffffffffffffffff1602179055503373ffffffffffffffffffffffffffffffffffffffff16827f238c7252698250ee4e4bd615b6b956e1e5097a0c1536a9ea33ae164324cd819e60405160405180910390a35050565b600080606060008060008060008060008a8152602001908152602001600020905080600001548160010154826002018360030160009054906101000a900473ffffffffffffffffffffffffffffffffffffffff168460040160009054906101000a900473ffffffffffffffffffffffffffffffffffffffff168560040160149054906101000a900460ff16600281111561053a57610539610922565b5b866005015484805461054b90610b23565b80601f016020809104026020016040519081016040528092919081815260200182805461057790610b23565b80156105c45780601f10610599576101008083540402835291602001916105c4565b820191906000526020600020905b8154815290600101906020018083116105a757829003601f168201915b50505050509450975097509750975097509750975050919395979092949650565b600080600083815260200190815260200160002090506000801b816000015403610644576040517f08c379a000000000000000000000000000000000000000000000000000000000815260040161063b90610e8a565b60405180910390fd5b60028160040160146101000a81548160ff0219169083600281111561066c5761066b610922565b5b0217905550338160040160006101000a81548173ffffffffffffffffffffffffffffffffffffffff021916908373ffffffffffffffffffffffffffffffffffffffff1602179055503373ffffffffffffffffffffffffffffffffffffffff16827f27d0945fb3636f7a4272436530402ff31ba7a064fc919ac3cd28de806e88b27a60405160405180910390a35050565b600080fd5b600080fd5b6000819050919050565b61071981610706565b811461072457600080fd5b50565b60008135905061073681610710565b92915050565b600080fd5b600080fd5b600080fd5b60008083601f8401126107615761076061073c565b5b8235905067ffffffffffffffff81111561077e5761077d610741565b5b60208301915083600182028301111561079a57610799610746565b5b9250929050565b600080600080606085870312156107bb576107ba6106fc565b5b60006107c987828801610727565b94505060206107da87828801610727565b935050604085013567ffffffffffffffff8111156107fb576107fa610701565b5b6108078782880161074b565b925092505092959194509250565b60006020828403121561082b5761082a6106fc565b5b600061083984828501610727565b91505092915050565b61084b81610706565b82525050565b600081519050919050565b600082825260208201905092915050565b60005b8381101561088b578082015181840152602081019050610870565b60008484015250505050565b6000601f19601f8301169050919050565b60006108b382610851565b6108bd818561085c565b93506108cd81856020860161086d565b6108d681610897565b840191505092915050565b600073ffffffffffffffffffffffffffffffffffffffff82169050919050565b600061090c826108e1565b9050919050565b61091c81610901565b82525050565b7f4e487b7100000000000000000000000000000000000000000000000000000000600052602160045260246000fd5b6003811061096257610961610922565b5b50565b600081905061097382610951565b919050565b600061098382610965565b9050919050565b61099381610978565b82525050565b6000819050919050565b6109ac81610999565b82525050565b600060e0820190506109c7600083018a610842565b6109d46020830189610842565b81810360408301526109e681886108a8565b90506109f56060830187610913565b610a026080830186610913565b610a0f60a083018561098a565b610a1c60c08301846109a3565b98975050505050505050565b600060ff82169050919050565b610a3e81610a28565b82525050565b600060e082019050610a59600083018a610842565b610a666020830189610842565b8181036040830152610a7881886108a8565b9050610a876060830187610913565b610a946080830186610913565b610aa160a0830185610a35565b610aae60c08301846109a3565b98975050505050505050565b600082905092915050565b7f4e487b7100000000000000000000000000000000000000000000000000000000600052604160045260246000fd5b7f4e487b7100000000000000000000000000000000000000000000000000000000600052602260045260246000fd5b60006002820490506001821680610b3b57607f821691505b602082108103610b4e57610b4d610af4565b5b50919050565b60008190508160005260206000209050919050565b60006020601f8301049050919050565b600082821b905092915050565b600060088302610bb67fffffffffffffffffffffffffffffffffffffffffffffffffffffffffffffffff82610b79565b610bc08683610b79565b95508019841693508086168417925050509392505050565b6000819050919050565b6000610bfd610bf8610bf384610999565b610bd8565b610999565b9050919050565b6000819050919050565b610c1783610be2565b610c2b610c2382610c04565b848454610b86565b825550505050565b600090565b610c40610c33565b610c4b818484610c0e565b505050565b5b81811015610c6f57610c64600082610c38565b600181019050610c51565b5050565b601f821115610cb457610c8581610b54565b610c8e84610b69565b81016020851015610c9d578190505b610cb1610ca985610b69565b830182610c50565b50505b505050565b600082821c905092915050565b6000610cd760001984600802610cb9565b1980831691505092915050565b6000610cf08383610cc6565b9150826002028217905092915050565b610d0a8383610aba565b67ffffffffffffffff811115610d2357610d22610ac5565b5b610d2d8254610b23565b610d38828285610c73565b6000601f831160018114610d675760008415610d55578287013590505b610d5f8582610ce4565b865550610dc7565b601f198416610d7586610b54565b60005b82811015610d9d57848901358255600182019150602085019450602081019050610d78565b86831015610dba5784890135610db6601f891682610cc6565b8355505b6001600288020188555050505b50505050505050565b82818337600083830152505050565b6000610deb838561085c565b9350610df8838584610dd0565b610e0183610897565b840190509392505050565b6000604082019050610e216000830186610842565b8181036020830152610e34818486610ddf565b9050949350505050565b7f6e6f7420666f756e640000000000000000000000000000000000000000000000600082015250565b6000610e7460098361085c565b9150610e7f82610e3e565b602082019050919050565b60006020820190508181036000830152610ea381610e67565b905091905056fea26469706673582212205b45b032b954986ec1d7d19b26de9831a1f5d14b7189438d6d46e706dec9d11664736f6c63430008140033","opcodes":"PUSH1 0x80 PUSH1 0x40 MSTORE CALLVALUE DUP1 ISZERO PUSH2 0x10 JUMPI PUSH1 0x0 DUP1 REVERT JUMPDEST POP PUSH2 0xEE0 DUP1 PUSH2 0x20 PUSH1 0x0 CODECOPY PUSH1 0x0 RETURN INVALID PUSH1 0x80 PUSH1 0x40 MSTORE CALLVALUE DUP1 ISZERO PUSH2 0x10 JUMPI PUSH1 0x0 DUP1 REVERT JUMPDEST POP PUSH1 0x4 CALLDATASIZE LT PUSH2 0x57 JUMPI PUSH1 0x0 CALLDATALOAD PUSH1 0xE0 SHR DUP1 PUSH4 0x79C2607 EQ PUSH2 0x5C JUMPI DUP1 PUSH4 0x4CAFA121 EQ PUSH2 0x78 JUMPI DUP1 PUSH4 0x8CD8349A EQ PUSH2 0xAE JUMPI DUP1 PUSH4 0xBC506F64 EQ PUSH2 0xCA JUMPI DUP1 PUSH4 0xFCDA35F9 EQ PUSH2 0x100 JUMPI JUMPDEST PUSH1 0x0 DUP1 REVERT JUMPDEST PUSH2 0x76 PUSH1 0x4 DUP1 CALLDATASIZE SUB DUP2 ADD SWAP1 PUSH2 0x71 SWAP2 SWAP1 PUSH2 0x7A1 JUMP JUMPDEST PUSH2 0x11C JUMP JUMPDEST STOP JUMPDEST PUSH2 0x92 PUSH1 0x4 DUP1 CALLDATASIZE SUB DUP2 ADD SWAP1 PUSH2 0x8D SWAP2 SWAP1 PUSH2 0x815 JUMP JUMPDEST PUSH2 0x26F JUMP JUMPDEST PUSH1 0x40 MLOAD PUSH2 0xA5 SWAP8 SWAP7 SWAP6 SWAP5 SWAP4 SWAP3 SWAP2 SWAP1 PUSH2 0x9B2 JUMP JUMPDEST PUSH1 0x40 MLOAD DUP1 SWAP2 SUB SWAP1 RETURN JUMPDEST PUSH2 0xC8 PUSH1 0x4 DUP1 CALLDATASIZE SUB DUP2 ADD SWAP1 PUSH2 0xC3 SWAP2 SWAP1 PUSH2 0x815 JUMP JUMPDEST PUSH2 0x386 JUMP JUMPDEST STOP JUMPDEST PUSH2 0xE4 PUSH1 0x4 DUP1 CALLDATASIZE SUB DUP2 ADD SWAP1 PUSH2 0xDF SWAP2 SWAP1 PUSH2 0x815 JUMP JUMPDEST PUSH2 0x49D JUMP JUMPDEST PUSH1 0x40 MLOAD PUSH2 0xF7 SWAP8 SWAP7 SWAP6 SWAP5 SWAP4 SWAP3 SWAP2 SWAP1 PUSH2 0xA44 JUMP JUMPDEST PUSH1 0x40 MLOAD DUP1 SWAP2 SUB SWAP1 RETURN JUMPDEST PUSH2 0x11A PUSH1 0x4 DUP1 CALLDATASIZE SUB DUP2 ADD SWAP1 PUSH2 0x115 SWAP2 SWAP1 PUSH2 0x815 JUMP JUMPDEST PUSH2 0x5E5 JUMP JUMPDEST STOP JUMPDEST PUSH1 0x0 DUP1 PUSH1 0x0 DUP7 DUP2 MSTORE PUSH1 0x20 ADD SWAP1 DUP2 MSTORE PUSH1 0x20 ADD PUSH1 0x0 KECCAK256 SWAP1 POP DUP5 DUP2 PUSH1 0x0 ADD DUP2 SWAP1 SSTORE POP DUP4 DUP2 PUSH1 0x1 ADD DUP2 SWAP1 SSTORE POP DUP3 DUP3 DUP3 PUSH1 0x2 ADD SWAP2 DUP3 PUSH2 0x157 SWAP3 SWAP2 SWAP1 PUSH2 0xD00 JUMP JUMPDEST POP CALLER DUP2 PUSH1 0x3 ADD PUSH1 0x0 PUSH2 0x100 EXP DUP2 SLOAD DUP2 PUSH20 0xFFFFFFFFFFFFFFFFFFFFFFFFFFFFFFFFFFFFFFFF MUL NOT AND SWAP1 DUP4 PUSH20 0xFFFFFFFFFFFFFFFFFFFFFFFFFFFFFFFFFFFFFFFF AND MUL OR SWAP1 SSTORE POP PUSH1 0x0 DUP2 PUSH1 0x4 ADD PUSH1 0x0 PUSH2 0x100 EXP DUP2 SLOAD DUP2 PUSH20 0xFFFFFFFFFFFFFFFFFFFFFFFFFFFFFFFFFFFFFFFF MUL NOT AND SWAP1 DUP4 PUSH20 0xFFFFFFFFFFFFFFFFFFFFFFFFFFFFFFFFFFFFFFFF AND MUL OR SWAP1 SSTORE POP PUSH1 0x0 DUP2 PUSH1 0x4 ADD PUSH1 0x14 PUSH2 0x100 EXP DUP2 SLOAD DUP2 PUSH1 0xFF MUL NOT AND SWAP1 DUP4 PUSH1 0x2 DUP2 GT ISZERO PUSH2 0x207 JUMPI PUSH2 0x206 PUSH2 0x922 JUMP JUMPDEST JUMPDEST MUL OR SWAP1 SSTORE POP TIMESTAMP DUP2 PUSH1 0x5 ADD DUP2 SWAP1 SSTORE POP CALLER PUSH20 0xFFFFFFFFFFFFFFFFFFFFFFFFFFFFFFFFFFFFFFFF AND DUP6 PUSH32 0xD97B75D1116CBF9E5344B022DBD767650A069B286EBEBD04E57C79A18718B565 DUP7 DUP7 DUP7 PUSH1 0x40 MLOAD PUSH2 0x260 SWAP4 SWAP3 SWAP2 SWAP1 PUSH2 0xE0C JUMP JUMPDEST PUSH1 0x40 MLOAD DUP1 SWAP2 SUB SWAP1 LOG3 POP POP POP POP POP JUMP JUMPDEST PUSH1 0x0 PUSH1 0x20 MSTORE DUP1 PUSH1 0x0 MSTORE PUSH1 0x40 PUSH1 0x0 KECCAK256 PUSH1 0x0 SWAP2 POP SWAP1 POP DUP1 PUSH1 0x0 ADD SLOAD SWAP1 DUP1 PUSH1 0x1 ADD SLOAD SWAP1 DUP1 PUSH1 0x2 ADD DUP1 SLOAD PUSH2 0x29E SWAP1 PUSH2 0xB23 JUMP JUMPDEST DUP1 PUSH1 0x1F ADD PUSH1 0x20 DUP1 SWAP2 DIV MUL PUSH1 0x20 ADD PUSH1 0x40 MLOAD SWAP1 DUP2 ADD PUSH1 0x40 MSTORE DUP1 SWAP3 SWAP2 SWAP1 DUP2 DUP2 MSTORE PUSH1 0x20 ADD DUP3 DUP1 SLOAD PUSH2 0x2CA SWAP1 PUSH2 0xB23 JUMP JUMPDEST DUP1 ISZERO PUSH2 0x317 JUMPI DUP1 PUSH1 0x1F LT PUSH2 0x2EC JUMPI PUSH2 0x100 DUP1 DUP4 SLOAD DIV MUL DUP4 MSTORE SWAP2 PUSH1 0x20 ADD SWAP2 PUSH2 0x317 JUMP JUMPDEST DUP3 ADD SWAP2 SWAP1 PUSH1 0x0 MSTORE PUSH1 0x20 PUSH1 0x0 KECCAK256 SWAP1 JUMPDEST DUP2 SLOAD DUP2 MSTORE SWAP1 PUSH1 0x1 ADD SWAP1 PUSH1 0x20 ADD DUP1 DUP4 GT PUSH2 0x2FA JUMPI DUP3 SWAP1 SUB PUSH1 0x1F AND DUP3 ADD SWAP2 JUMPDEST POP POP POP POP POP SWAP1 DUP1 PUSH1 0x3 ADD PUSH1 0x0 SWAP1 SLOAD SWAP1 PUSH2 0x100 EXP SWAP1 DIV PUSH20 0xFFFFFFFFFFFFFFFFFFFFFFFFFFFFFFFFFFFFFFFF AND SWAP1 DUP1 PUSH1 0x4 ADD PUSH1 0x0 SWAP1 SLOAD SWAP1 PUSH2 0x100 EXP SWAP1 DIV PUSH20 0xFFFFFFFFFFFFFFFFFFFFFFFFFFFFFFFFFFFFFFFF AND SWAP1 DUP1 PUSH1 0x4 ADD PUSH1 0x14 SWAP1 SLOAD SWAP1 PUSH2 0x100 EXP SWAP1 DIV PUSH1 0xFF AND SWAP1 DUP1 PUSH1 0x5 ADD SLOAD SWAP1 POP DUP8 JUMP JUMPDEST PUSH1 0x0 DUP1 PUSH1 0x0 DUP4 DUP2 MSTORE PUSH1 0x20 ADD SWAP1 DUP2 MSTORE PUSH1 0x20 ADD PUSH1 0x0 KECCAK256 SWAP1 POP PUSH1 0x0 DUP1 SHL DUP2 PUSH1 0x0 ADD SLOAD SUB PUSH2 0x3E5 JUMPI PUSH1 0x40 MLOAD PUSH32 0x8C379A000000000000000000000000000000000000000000000000000000000 DUP2 MSTORE PUSH1 0x4 ADD PUSH2 0x3DC SWAP1 PUSH2 0xE8A JUMP JUMPDEST PUSH1 0x40 MLOAD DUP1 SWAP2 SUB SWAP1 REVERT JUMPDEST PUSH1 0x1 DUP2 PUSH1 0x4 ADD PUSH1 0x14 PUSH2 0x100 EXP DUP2 SLOAD DUP2 PUSH1 0xFF MUL NOT AND SWAP1 DUP4 PUSH1 0x2 DUP2 GT ISZERO PUSH2 0x40D JUMPI PUSH2 0x40C PUSH2 0x922 JUMP JUMPDEST JUMPDEST MUL OR SWAP1 SSTORE POP CALLER DUP2 PUSH1 0x4 ADD PUSH1 0x0 PUSH2 0x100 EXP DUP2 SLOAD DUP2 PUSH20 0xFFFFFFFFFFFFFFFFFFFFFFFFFFFFFFFFFFFFFFFF MUL NOT AND SWAP1 DUP4 PUSH20 0xFFFFFFFFFFFFFFFFFFFFFFFFFFFFFFFFFFFFFFFF AND MUL OR SWAP1 SSTORE POP CALLER PUSH20 0xFFFFFFFFFFFFFFFFFFFFFFFFFFFFFFFFFFFFFFFF AND DUP3 PUSH32 0x238C7252698250EE4E4BD615B6B956E1E5097A0C1536A9EA33AE164324CD819E PUSH1 0x40 MLOAD PUSH1 0x40 MLOAD DUP1 SWAP2 SUB SWAP1 LOG3 POP POP JUMP JUMPDEST PUSH1 0x0 DUP1 PUSH1 0x60 PUSH1 0x0 DUP1 PUSH1 0x0 DUP1 PUSH1 0x0 DUP1 PUSH1 0x0 DUP11 DUP2 MSTORE PUSH1 0x20 ADD SWAP1 DUP2 MSTORE PUSH1 0x20 ADD PUSH1 0x0 KECCAK256 SWAP1 POP DUP1 PUSH1 0x0 ADD SLOAD DUP2 PUSH1 0x1 ADD SLOAD DUP3 PUSH1 0x2 ADD DUP4 PUSH1 0x3 ADD PUSH1 0x0 SWAP1 SLOAD SWAP1 PUSH2 0x100 EXP SWAP1 DIV PUSH20 0xFFFFFFFFFFFFFFFFFFFFFFFFFFFFFFFFFFFFFFFF AND DUP5 PUSH1 0x4 ADD PUSH1 0x0 SWAP1 SLOAD SWAP1 PUSH2 0x100 EXP SWAP1 DIV PUSH20 0xFFFFFFFFFFFFFFFFFFFFFFFFFFFFFFFFFFFFFFFF AND DUP6 PUSH1 0x4 ADD PUSH1 0x14 SWAP1 SLOAD SWAP1 PUSH2 0x100 EXP SWAP1 DIV PUSH1 0xFF AND PUSH1 0x2 DUP2 GT ISZERO PUSH2 0x53A JUMPI PUSH2 0x539 PUSH2 0x922 JUMP JUMPDEST JUMPDEST DUP7 PUSH1 0x5 ADD SLOAD DUP5 DUP1 SLOAD PUSH2 0x54B SWAP1 PUSH2 0xB23 JUMP JUMPDEST DUP1 PUSH1 0x1F ADD PUSH1 0x20 DUP1 SWAP2 DIV MUL PUSH1 0x20 ADD PUSH1 0x40 MLOAD SWAP1 DUP2 ADD PUSH1 0x40 MSTORE DUP1 SWAP3 SWAP2 SWAP1 DUP2 DUP2 MSTORE PUSH1 0x20 ADD DUP3 DUP1 SLOAD PUSH2 0x577 SWAP1 PUSH2 0xB23 JUMP JUMPDEST DUP1 ISZERO PUSH2 0x5C4 JUMPI DUP1 PUSH1 0x1F LT PUSH2 0x599 JUMPI PUSH2 0x100 DUP1 DUP4 SLOAD DIV MUL DUP4 MSTORE SWAP2 PUSH1 0x20 ADD SWAP2 PUSH2 0x5C4 JUMP JUMPDEST DUP3 ADD SWAP2 SWAP1 PUSH1 0x0 MSTORE PUSH1 0x20 PUSH1 0x0 KECCAK256 SWAP1 JUMPDEST DUP2 SLOAD DUP2 MSTORE SWAP1 PUSH1 0x1 ADD SWAP1 PUSH1 0x20 ADD DUP1 DUP4 GT PUSH2 0x5A7 JUMPI DUP3 SWAP1 SUB PUSH1 0x1F AND DUP3 ADD SWAP2 JUMPDEST POP POP POP POP POP SWAP5 POP SWAP8 POP SWAP8 POP SWAP8 POP SWAP8 POP SWAP8 POP SWAP8 POP SWAP8 POP POP SWAP2 SWAP4 SWAP6 SWAP8 SWAP1 SWAP3 SWAP5 SWAP7 POP JUMP JUMPDEST PUSH1 0x0 DUP1 PUSH1 0x0 DUP4 DUP2 MSTORE PUSH1 0x20 ADD SWAP1 DUP2 MSTORE PUSH1 0x20 ADD PUSH1 0x0 KECCAK256 SWAP1 POP PUSH1 0x0 DUP1 SHL DUP2 PUSH1 0x0 ADD SLOAD SUB PUSH2 0x644 JUMPI PUSH1 0x40 MLOAD PUSH32 0x8C379A000000000000000000000000000000000000000000000000000000000 DUP2 MSTORE PUSH1 0x4 ADD PUSH2 0x63B SWAP1 PUSH2 0xE8A JUMP JUMPDEST PUSH1 0x40 MLOAD DUP1 SWAP2 SUB SWAP1 REVERT JUMPDEST PUSH1 0x2 DUP2 PUSH1 0x4 ADD PUSH1 0x14 PUSH2 0x100 EXP DUP2 SLOAD DUP2 PUSH1 0xFF MUL NOT AND SWAP1 DUP4 PUSH1 0x2 DUP2 GT ISZERO PUSH2 0x66C JUMPI PUSH2 0x66B PUSH2 0x922 JUMP JUMPDEST JUMPDEST MUL OR SWAP1 SSTORE POP CALLER DUP2 PUSH1 0x4 ADD PUSH1 0x0 PUSH2 0x100 EXP DUP2 SLOAD DUP2 PUSH20 0xFFFFFFFFFFFFFFFFFFFFFFFFFFFFFFFFFFFFFFFF MUL NOT AND SWAP1 DUP4 PUSH20 0xFFFFFFFFFFFFFFFFFFFFFFFFFFFFFFFFFFFFFFFF AND MUL OR SWAP1 SSTORE POP CALLER PUSH20 0xFFFFFFFFFFFFFFFFFFFFFFFFFFFFFFFFFFFFFFFF AND DUP3 PUSH32 0x27D0945FB3636F7A4272436530402FF31BA7A064FC919AC3CD28DE806E88B27A PUSH1 0x40 MLOAD PUSH1 0x40 MLOAD DUP1 SWAP2 SUB SWAP1 LOG3 POP POP JUMP JUMPDEST PUSH1 0x0 DUP1 REVERT JUMPDEST PUSH1 0x0 DUP1 REVERT JUMPDEST PUSH1 0x0 DUP2 SWAP1 POP SWAP2 SWAP1 POP JUMP JUMPDEST PUSH2 0x719 DUP2 PUSH2 0x706 JUMP JUMPDEST DUP2 EQ PUSH2 0x724 JUMPI PUSH1 0x0 DUP1 REVERT JUMPDEST POP JUMP JUMPDEST PUSH1 0x0 DUP2 CALLDATALOAD SWAP1 POP PUSH2 0x736 DUP2 PUSH2 0x710 JUMP JUMPDEST SWAP3 SWAP2 POP POP JUMP JUMPDEST PUSH1 0x0 DUP1 REVERT JUMPDEST PUSH1 0x0 DUP1 REVERT JUMPDEST PUSH1 0x0 DUP1 REVERT JUMPDEST PUSH1 0x0 DUP1 DUP4 PUSH1 0x1F DUP5 ADD SLT PUSH2 0x761 JUMPI PUSH2 0x760 PUSH2 0x73C JUMP JUMPDEST JUMPDEST DUP3 CALLDATALOAD SWAP1 POP PUSH8 0xFFFFFFFFFFFFFFFF DUP2 GT ISZERO PUSH2 0x77E JUMPI PUSH2 0x77D PUSH2 0x741 JUMP JUMPDEST JUMPDEST PUSH1 0x20 DUP4 ADD SWAP2 POP DUP4 PUSH1 0x1 DUP3 MUL DUP4 ADD GT ISZERO PUSH2 0x79A JUMPI PUSH2 0x799 PUSH2 0x746 JUMP JUMPDEST JUMPDEST SWAP3 POP SWAP3 SWAP1 POP JUMP JUMPDEST PUSH1 0x0 DUP1 PUSH1 0x0 DUP1 PUSH1 0x60 DUP6 DUP8 SUB SLT ISZERO PUSH2 0x7BB JUMPI PUSH2 0x7BA PUSH2 0x6FC JUMP JUMPDEST JUMPDEST PUSH1 0x0 PUSH2 0x7C9 DUP8 DUP3 DUP9 ADD PUSH2 0x727 JUMP JUMPDEST SWAP5 POP POP PUSH1 0x20 PUSH2 0x7DA DUP8 DUP3 DUP9 ADD PUSH2 0x727 JUMP JUMPDEST SWAP4 POP POP PUSH1 0x40 DUP6 ADD CALLDATALOAD PUSH8 0xFFFFFFFFFFFFFFFF DUP2 GT ISZERO PUSH2 0x7FB JUMPI PUSH2 0x7FA PUSH2 0x701 JUMP JUMPDEST JUMPDEST PUSH2 0x807 DUP8 DUP3 DUP9 ADD PUSH2 0x74B JUMP JUMPDEST SWAP3 POP SWAP3 POP POP SWAP3 SWAP6 SWAP2 SWAP5 POP SWAP3 POP JUMP JUMPDEST PUSH1 0x0 PUSH1 0x20 DUP3 DUP5 SUB SLT ISZERO PUSH2 0x82B JUMPI PUSH2 0x82A PUSH2 0x6FC JUMP JUMPDEST JUMPDEST PUSH1 0x0 PUSH2 0x839 DUP5 DUP3 DUP6 ADD PUSH2 0x727 JUMP JUMPDEST SWAP2 POP POP SWAP3 SWAP2 POP POP JUMP JUMPDEST PUSH2 0x84B DUP2 PUSH2 0x706 JUMP JUMPDEST DUP3 MSTORE POP POP JUMP JUMPDEST PUSH1 0x0 DUP2 MLOAD SWAP1 POP SWAP2 SWAP1 POP JUMP JUMPDEST PUSH1 0x0 DUP3 DUP3 MSTORE PUSH1 0x20 DUP3 ADD SWAP1 POP SWAP3 SWAP2 POP POP JUMP JUMPDEST PUSH1 0x0 JUMPDEST DUP4 DUP2 LT ISZERO PUSH2 0x88B JUMPI DUP1 DUP3 ADD MLOAD DUP2 DUP5 ADD MSTORE PUSH1 0x20 DUP2 ADD SWAP1 POP PUSH2 0x870 JUMP JUMPDEST PUSH1 0x0 DUP5 DUP5 ADD MSTORE POP POP POP POP JUMP JUMPDEST PUSH1 0x0 PUSH1 0x1F NOT PUSH1 0x1F DUP4 ADD AND SWAP1 POP SWAP2 SWAP1 POP JUMP JUMPDEST PUSH1 0x0 PUSH2 0x8B3 DUP3 PUSH2 0x851 JUMP JUMPDEST PUSH2 0x8BD DUP2 DUP6 PUSH2 0x85C JUMP JUMPDEST SWAP4 POP PUSH2 0x8CD DUP2 DUP6 PUSH1 0x20 DUP7 ADD PUSH2 0x86D JUMP JUMPDEST PUSH2 0x8D6 DUP2 PUSH2 0x897 JUMP JUMPDEST DUP5 ADD SWAP2 POP POP SWAP3 SWAP2 POP POP JUMP JUMPDEST PUSH1 0x0 PUSH20 0xFFFFFFFFFFFFFFFFFFFFFFFFFFFFFFFFFFFFFFFF DUP3 AND SWAP1 POP SWAP2 SWAP1 POP JUMP JUMPDEST PUSH1 0x0 PUSH2 0x90C DUP3 PUSH2 0x8E1 JUMP JUMPDEST SWAP1 POP SWAP2 SWAP1 POP JUMP JUMPDEST PUSH2 0x91C DUP2 PUSH2 0x901 JUMP JUMPDEST DUP3 MSTORE POP POP JUMP JUMPDEST PUSH32 0x4E487B7100000000000000000000000000000000000000000000000000000000 PUSH1 0x0 MSTORE PUSH1 0x21 PUSH1 0x4 MSTORE PUSH1 0x24 PUSH1 0x0 REVERT JUMPDEST PUSH1 0x3 DUP2 LT PUSH2 0x962 JUMPI PUSH2 0x961 PUSH2 0x922 JUMP JUMPDEST JUMPDEST POP JUMP JUMPDEST PUSH1 0x0 DUP2 SWAP1 POP PUSH2 0x973 DUP3 PUSH2 0x951 JUMP JUMPDEST SWAP2 SWAP1 POP JUMP JUMPDEST PUSH1 0x0 PUSH2 0x983 DUP3 PUSH2 0x965 JUMP JUMPDEST SWAP1 POP SWAP2 SWAP1 POP JUMP JUMPDEST PUSH2 0x993 DUP2 PUSH2 0x978 JUMP JUMPDEST DUP3 MSTORE POP POP JUMP JUMPDEST PUSH1 0x0 DUP2 SWAP1 POP SWAP2 SWAP1 POP JUMP JUMPDEST PUSH2 0x9AC DUP2 PUSH2 0x999 JUMP JUMPDEST DUP3 MSTORE POP POP JUMP JUMPDEST PUSH1 0x0 PUSH1 0xE0 DUP3 ADD SWAP1 POP PUSH2 0x9C7 PUSH1 0x0 DUP4 ADD DUP11 PUSH2 0x842 JUMP JUMPDEST PUSH2 0x9D4 PUSH1 0x20 DUP4 ADD DUP10 PUSH2 0x842 JUMP JUMPDEST DUP2 DUP2 SUB PUSH1 0x40 DUP4 ADD MSTORE PUSH2 0x9E6 DUP2 DUP9 PUSH2 0x8A8 JUMP JUMPDEST SWAP1 POP PUSH2 0x9F5 PUSH1 0x60 DUP4 ADD DUP8 PUSH2 0x913 JUMP JUMPDEST PUSH2 0xA02 PUSH1 0x80 DUP4 ADD DUP7 PUSH2 0x913 JUMP JUMPDEST PUSH2 0xA0F PUSH1 0xA0 DUP4 ADD DUP6 PUSH2 0x98A JUMP JUMPDEST PUSH2 0xA1C PUSH1 0xC0 DUP4 ADD DUP5 PUSH2 0x9A3 JUMP JUMPDEST SWAP9 SWAP8 POP POP POP POP POP POP POP POP JUMP JUMPDEST PUSH1 0x0 PUSH1 0xFF DUP3 AND SWAP1 POP SWAP2 SWAP1 POP JUMP JUMPDEST PUSH2 0xA3E DUP2 PUSH2 0xA28 JUMP JUMPDEST DUP3 MSTORE POP POP JUMP JUMPDEST PUSH1 0x0 PUSH1 0xE0 DUP3 ADD SWAP1 POP PUSH2 0xA59 PUSH1 0x0 DUP4 ADD DUP11 PUSH2 0x842 JUMP JUMPDEST PUSH2 0xA66 PUSH1 0x20 DUP4 ADD DUP10 PUSH2 0x842 JUMP JUMPDEST DUP2 DUP2 SUB PUSH1 0x40 DUP4 ADD MSTORE PUSH2 0xA78 DUP2 DUP9 PUSH2 0x8A8 JUMP JUMPDEST SWAP1 POP PUSH2 0xA87 PUSH1 0x60 DUP4 ADD DUP8 PUSH2 0x913 JUMP JUMPDEST PUSH2 0xA94 PUSH1 0x80 DUP4 ADD DUP7 PUSH2 0x913 JUMP JUMPDEST PUSH2 0xAA1 PUSH1 0xA0 DUP4 ADD DUP6 PUSH2 0xA35 JUMP JUMPDEST PUSH2 0xAAE PUSH1 0xC0 DUP4 ADD DUP5 PUSH2 0x9A3 JUMP JUMPDEST SWAP9 SWAP8 POP POP POP POP POP POP POP POP JUMP JUMPDEST PUSH1 0x0 DUP3 SWAP1 POP SWAP3 SWAP2 POP POP JUMP JUMPDEST PUSH32 0x4E487B7100000000000000000000000000000000000000000000000000000000 PUSH1 0x0 MSTORE PUSH1 0x41 PUSH1 0x4 MSTORE PUSH1 0x24 PUSH1 0x0 REVERT JUMPDEST PUSH32 0x4E487B7100000000000000000000000000000000000000000000000000000000 PUSH1 0x0 MSTORE PUSH1 0x22 PUSH1 0x4 MSTORE PUSH1 0x24 PUSH1 0x0 REVERT JUMPDEST PUSH1 0x0 PUSH1 0x2 DUP3 DIV SWAP1 POP PUSH1 0x1 DUP3 AND DUP1 PUSH2 0xB3B JUMPI PUSH1 0x7F DUP3 AND SWAP2 POP JUMPDEST PUSH1 0x20 DUP3 LT DUP2 SUB PUSH2 0xB4E JUMPI PUSH2 0xB4D PUSH2 0xAF4 JUMP JUMPDEST JUMPDEST POP SWAP2 SWAP1 POP JUMP JUMPDEST PUSH1 0x0 DUP2 SWAP1 POP DUP2 PUSH1 0x0 MSTORE PUSH1 0x20 PUSH1 0x0 KECCAK256 SWAP1 POP SWAP2 SWAP1 POP JUMP JUMPDEST PUSH1 0x0 PUSH1 0x20 PUSH1 0x1F DUP4 ADD DIV SWAP1 POP SWAP2 SWAP1 POP JUMP JUMPDEST PUSH1 0x0 DUP3 DUP3 SHL SWAP1 POP SWAP3 SWAP2 POP POP JUMP JUMPDEST PUSH1 0x0 PUSH1 0x8 DUP4 MUL PUSH2 0xBB6 PUSH32 0xFFFFFFFFFFFFFFFFFFFFFFFFFFFFFFFFFFFFFFFFFFFFFFFFFFFFFFFFFFFFFFFF DUP3 PUSH2 0xB79 JUMP JUMPDEST PUSH2 0xBC0 DUP7 DUP4 PUSH2 0xB79 JUMP JUMPDEST SWAP6 POP DUP1 NOT DUP5 AND SWAP4 POP DUP1 DUP7 AND DUP5 OR SWAP3 POP POP POP SWAP4 SWAP3 POP POP POP JUMP JUMPDEST PUSH1 0x0 DUP2 SWAP1 POP SWAP2 SWAP1 POP JUMP JUMPDEST PUSH1 0x0 PUSH2 0xBFD PUSH2 0xBF8 PUSH2 0xBF3 DUP5 PUSH2 0x999 JUMP JUMPDEST PUSH2 0xBD8 JUMP JUMPDEST PUSH2 0x999 JUMP JUMPDEST SWAP1 POP SWAP2 SWAP1 POP JUMP JUMPDEST PUSH1 0x0 DUP2 SWAP1 POP SWAP2 SWAP1 POP JUMP JUMPDEST PUSH2 0xC17 DUP4 PUSH2 0xBE2 JUMP JUMPDEST PUSH2 0xC2B PUSH2 0xC23 DUP3 PUSH2 0xC04 JUMP JUMPDEST DUP5 DUP5 SLOAD PUSH2 0xB86 JUMP JUMPDEST DUP3 SSTORE POP POP POP POP JUMP JUMPDEST PUSH1 0x0 SWAP1 JUMP JUMPDEST PUSH2 0xC40 PUSH2 0xC33 JUMP JUMPDEST PUSH2 0xC4B DUP2 DUP5 DUP5 PUSH2 0xC0E JUMP JUMPDEST POP POP POP JUMP JUMPDEST JUMPDEST DUP2 DUP2 LT ISZERO PUSH2 0xC6F JUMPI PUSH2 0xC64 PUSH1 0x0 DUP3 PUSH2 0xC38 JUMP JUMPDEST PUSH1 0x1 DUP2 ADD SWAP1 POP PUSH2 0xC51 JUMP JUMPDEST POP POP JUMP JUMPDEST PUSH1 0x1F DUP3 GT ISZERO PUSH2 0xCB4 JUMPI PUSH2 0xC85 DUP2 PUSH2 0xB54 JUMP JUMPDEST PUSH2 0xC8E DUP5 PUSH2 0xB69 JUMP JUMPDEST DUP2 ADD PUSH1 0x20 DUP6 LT ISZERO PUSH2 0xC9D JUMPI DUP2 SWAP1 POP JUMPDEST PUSH2 0xCB1 PUSH2 0xCA9 DUP6 PUSH2 0xB69 JUMP JUMPDEST DUP4 ADD DUP3 PUSH2 0xC50 JUMP JUMPDEST POP POP JUMPDEST POP POP POP JUMP JUMPDEST PUSH1 0x0 DUP3 DUP3 SHR SWAP1 POP SWAP3 SWAP2 POP POP JUMP JUMPDEST PUSH1 0x0 PUSH2 0xCD7 PUSH1 0x0 NOT DUP5 PUSH1 0x8 MUL PUSH2 0xCB9 JUMP JUMPDEST NOT DUP1 DUP4 AND SWAP2 POP POP SWAP3 SWAP2 POP POP JUMP JUMPDEST PUSH1 0x0 PUSH2 0xCF0 DUP4 DUP4 PUSH2 0xCC6 JUMP JUMPDEST SWAP2 POP DUP3 PUSH1 0x2 MUL DUP3 OR SWAP1 POP SWAP3 SWAP2 POP POP JUMP JUMPDEST PUSH2 0xD0A DUP4 DUP4 PUSH2 0xABA JUMP JUMPDEST PUSH8 0xFFFFFFFFFFFFFFFF DUP2 GT ISZERO PUSH2 0xD23 JUMPI PUSH2 0xD22 PUSH2 0xAC5 JUMP JUMPDEST JUMPDEST PUSH2 0xD2D DUP3 SLOAD PUSH2 0xB23 JUMP JUMPDEST PUSH2 0xD38 DUP3 DUP3 DUP6 PUSH2 0xC73 JUMP JUMPDEST PUSH1 0x0 PUSH1 0x1F DUP4 GT PUSH1 0x1 DUP2 EQ PUSH2 0xD67 JUMPI PUSH1 0x0 DUP5 ISZERO PUSH2 0xD55 JUMPI DUP3 DUP8 ADD CALLDATALOAD SWAP1 POP JUMPDEST PUSH2 0xD5F DUP6 DUP3 PUSH2 0xCE4 JUMP JUMPDEST DUP7 SSTORE POP PUSH2 0xDC7 JUMP JUMPDEST PUSH1 0x1F NOT DUP5 AND PUSH2 0xD75 DUP7 PUSH2 0xB54 JUMP JUMPDEST PUSH1 0x0 JUMPDEST DUP3 DUP2 LT ISZERO PUSH2 0xD9D JUMPI DUP5 DUP10 ADD CALLDATALOAD DUP3 SSTORE PUSH1 0x1 DUP3 ADD SWAP2 POP PUSH1 0x20 DUP6 ADD SWAP5 POP PUSH1 0x20 DUP2 ADD SWAP1 POP PUSH2 0xD78 JUMP JUMPDEST DUP7 DUP4 LT ISZERO PUSH2 0xDBA JUMPI DUP5 DUP10 ADD CALLDATALOAD PUSH2 0xDB6 PUSH1 0x1F DUP10 AND DUP3 PUSH2 0xCC6 JUMP JUMPDEST DUP4 SSTORE POP JUMPDEST PUSH1 0x1 PUSH1 0x2 DUP9 MUL ADD DUP9 SSTORE POP POP POP JUMPDEST POP POP POP POP POP POP POP JUMP JUMPDEST DUP3 DUP2 DUP4 CALLDATACOPY PUSH1 0x0 DUP4 DUP4 ADD MSTORE POP POP POP JUMP JUMPDEST PUSH1 0x0 PUSH2 0xDEB DUP4 DUP6 PUSH2 0x85C JUMP JUMPDEST SWAP4 POP PUSH2 0xDF8 DUP4 DUP6 DUP5 PUSH2 0xDD0 JUMP JUMPDEST PUSH2 0xE01 DUP4 PUSH2 0x897 JUMP JUMPDEST DUP5 ADD SWAP1 POP SWAP4 SWAP3 POP POP POP JUMP JUMPDEST PUSH1 0x0 PUSH1 0x40 DUP3 ADD SWAP1 POP PUSH2 0xE21 PUSH1 0x0 DUP4 ADD DUP7 PUSH2 0x842 JUMP JUMPDEST DUP2 DUP2 SUB PUSH1 0x20 DUP4 ADD MSTORE PUSH2 0xE34 DUP2 DUP5 DUP7 PUSH2 0xDDF JUMP JUMPDEST SWAP1 POP SWAP5 SWAP4 POP POP POP POP JUMP JUMPDEST PUSH32 0x6E6F7420666F756E640000000000000000000000000000000000000000000000 PUSH1 0x0 DUP3 ADD MSTORE POP JUMP JUMPDEST PUSH1 0x0 PUSH2 0xE74 PUSH1 0x9 DUP4 PUSH2 0x85C JUMP JUMPDEST SWAP2 POP PUSH2 0xE7F DUP3 PUSH2 0xE3E JUMP JUMPDEST PUSH1 0x20 DUP3 ADD SWAP1 POP SWAP2 SWAP1 POP JUMP JUMPDEST PUSH1 0x0 PUSH1 0x20 DUP3 ADD SWAP1 POP DUP2 DUP2 SUB PUSH1 0x0 DUP4 ADD MSTORE PUSH2 0xEA3 DUP2 PUSH2 0xE67 JUMP JUMPDEST SWAP1 POP SWAP2 SWAP1 POP JUMP INVALID LOG2 PUSH5 0x6970667358 0x22 SLT KECCAK256 JUMPDEST GASLIMIT 0xB0 ORIGIN 0xB9 SLOAD SWAP9 PUSH15 0xC1D7D19B26DE9831A1F5D14B718943 DUP14 PUSH14 0x46E706DEC9D11664736F6C634300 ADDMOD EQ STOP CALLER "},"methodIdentifiers":{"applications(bytes32)":"4cafa121","getApplication(bytes32)":"bc506f64","rejectApplication(bytes32)":"fcda35f9","submitApplication(bytes32,bytes32,string)":"079c2607","verifyApplication(bytes32)":"8cd8349a"}}}}}