{
  "_format": "hh-sol-artifact-1",
  "contractName": "AadhaarVault",
  "sourceName": "contracts/AadhaarVault.sol",
  "abi": [
    {
      "anonymous": false,
      "inputs": [
        {
          "indexed": true,
          "internalType": "bytes32",
          "name": "recordId",
          "type": "bytes32"
        },
        {
          "indexed": true,
          "internalType": "address",
          "name": "verifier",
          "type": "address"
        }
      ],
      "name": "ApplicationRejected",
      "type": "event"
    },
    {
      "anonymous": false,
      "inputs": [
        {
          "indexed": true,
          "internalType": "bytes32",
          "name": "recordId",
          "type": "bytes32"
        },
        {
          "indexed": false,
          "internalType": "bytes32",
          "name": "hash",
          "type": "bytes32"
        },
        {
          "indexed": false,
          "internalType": "string",
          "name": "cid",
          "type": "string"
        },
        {
          "indexed": true,
          "internalType": "address",
          "name": "applicant",
          "type": "address"
        }
      ],
      "name": "ApplicationSubmitted",
      "type": "event"
    },
    {
      "anonymous": false,
      "inputs": [
        {
          "indexed": true,
          "internalType": "bytes32",
          "name": "recordId",
          "type": "bytes32"
        },
        {
          "indexed": true,
          "internalType": "address",
          "name": "verifier",
          "type": "address"
        }
      ],
      "name": "ApplicationVerified",
      "type": "event"
    },
    {
      "inputs": [
        {
          "internalType": "bytes32",
          "name": "",
          "type": "bytes32"
        }
      ],
      "name": "applications",
      "outputs": [
        {
          "internalType": "bytes32",
          "name": "recordId",
          "type": "bytes32"
        },
        {
          "internalType": "bytes32",
          "name": "hash",
          "type": "bytes32"
        },
        {
          "internalType": "string",
          "name": "cid",
          "type": "string"
        },
        {
          "internalType": "address",
          "name": "applicant",
          "type": "address"
        },
        {
          "internalType": "address",
          "name": "verifier",
          "type": "address"
        },
        {
          "internalType": "enum AadhaarVault.Status",
          "name": "status",
          "type": "uint8"
        },
        {
          "internalType": "uint256",
          "name": "timestamp",
          "type": "uint256"
        }
      ],
      "stateMutability": "view",
      "type": "function"
    },
    {
      "inputs": [
        {
          "internalType": "bytes32",
          "name": "recordId",
          "type": "bytes32"
        }
      ],
      "name": "getApplication",
      "outputs": [
        {
          "internalType": "bytes32",
          "name": "",
          "type": "bytes32"
        },
        {
          "internalType": "bytes32",
          "name": "",
          "type": "bytes32"
        },
        {
          "internalType": "string",
          "name": "",
          "type": "string"
        },
        {
          "internalType": "address",
          "name": "",
          "type": "address"
        },
        {
          "internalType": "address",
          "name": "",
          "type": "address"
        },
        {
          "internalType": "uint8",
          "name": "",
          "type": "uint8"
        },
        {
          "internalType": "uint256",
          "name": "",
          "type": "uint256"
        }
      ],
      "stateMutability": "view",
      "type": "function"
    },
    {
      "inputs": [
        {
          "internalType": "bytes32",
          "name": "recordId",
          "type": "bytes32"
        }
      ],
      "name": "rejectApplication",
      "outputs": [],
      "stateMutability": "nonpayable",
      "type": "function"
    },
    {
      "inputs": [
        {
          "internalType": "bytes32",
          "name": "recordId",
          "type": "bytes32"
        },
        {
          "internalType": "bytes32",
          "name": "hash",
          "type": "bytes32"
        },
        {
          "internalType": "string",
          "name": "cid",
          "type": "string"
        }
      ],
      "name": "submitApplication",
      "outputs": [],
      "stateMutability": "nonpayable",
      "type": "function"
    },
    {
      "inputs": [
        {
          "internalType": "bytes32",
          "name": "recordId",
          "type": "bytes32"
        }
      ],
      "name": "verifyApplication",
      "outputs": [],
      "stateMutability": "nonpayable",
      "type": "function"
    }
  ],
  "bytecode": "0x608060405234801561001057600080fd5b50610ee0806100206000396000f3fe608060405234801561001057600080fd5b50600436106100575760003560e01c8063079c26071461005c5780634cafa121146100785780638cd8349a146100ae578063bc506f64146100ca578063fcda35f914610100575b600080fd5b610076600480360381019061007191906107a1565b61011c565b005b610092600480360381019061008d9190610815565b61026f565b6040516100a597969594939291906109b2565b60405180910390f35b6100c860048036038101906100c39190610815565b610386565b005b6100e460048036038101906100df9190610815565b61049d565b6040516100f79796959493929190610a44565b60405180910390f35b61011a60048036038101906101159190610815565b6105e5565b005b600080600086815260200190815260200160002090508481600001819055508381600101819055508282826002019182610157929190610d00565b50338160030160006101000a81548173ffffffffffffffffffffffffffffffffffffffff021916908373ffffffffffffffffffffffffffffffffffffffff16021790555060008160040160006101000a81548173ffffffffffffffffffffffffffffffffffffffff021916908373ffffffffffffffffffffffffffffffffffffffff16021790555060008160040160146101000a81548160ff0219169083600281111561020757610206610922565b5b02179055504281600501819055503373ffffffffffffffffffffffffffffffffffffffff16857fd97b75d1116cbf9e5344b022dbd767650a069b286ebebd04e57c79a18718b56586868660405161026093929190610e0c565b60405180910390a35050505050565b600060205280600052604060002060009150905080600001549080600101549080600201805461029e90610b23565b80601f01602080910402602001604051908101604052809291908181526020018280546102ca90610b23565b80156103175780601f106102ec57610100808354040283529160200191610317565b820191906000526020600020905b8154815290600101906020018083116102fa57829003601f168201915b5050505050908060030160009054906101000a900473ffffffffffffffffffffffffffffffffffffffff16908060040160009054906101000a900473ffffffffffffffffffffffffffffffffffffffff16908060040160149054906101000a900460ff16908060050154905087565b600080600083815260200190815260200160002090506000801b8160000154036103e5576040517f08c379a00000000000000000000000000000000000000000000000000000000081526004016103dc90610e8a565b60405180910390fd5b60018160040160146101000a81548160ff0219169083600281111561040d5761040c610922565b5b0217905550338160040160006101000a81548173ffffffffffffffffffffffffffffffffffffffff021916908373ffffffffffffffffffffffffffffffffffffffff1602179055503373ffffffffffffffffffffffffffffffffffffffff16827f238c7252698250ee4e4bd615b6b956e1e5097a0c1536a9ea33ae164324cd819e60405160405180910390a35050565b600080606060008060008060008060008a8152602001908152602001600020905080600001548160010154826002018360030160009054906101000a900473ffffffffffffffffffffffffffffffffffffffff168460040160009054906101000a900473ffffffffffffffffffffffffffffffffffffffff168560040160149054906101000a900460ff16600281111561053a57610539610922565b5b866005015484805461054b90610b23565b80601f016020809104026020016040519081016040528092919081815260200182805461057790610b23565b80156105c45780601f10610599576101008083540402835291602001916105c4565b820191906000526020600020905b8154815290600101906020018083116105a757829003601f168201915b50505050509450975097509750975097509750975050919395979092949650565b600080600083815260200190815260200160002090506000801b816000015403610644576040517f08c379a000000000000000000000000000000000000000000000000000000000815260040161063b90610e8a565b60405180910390fd5b60028160040160146101000a81548160ff0219169083600281111561066c5761066b610922565b5b0217905550338160040160006101000a81548173ffffffffffffffffffffffffffffffffffffffff021916908373ffffffffffffffffffffffffffffffffffffffff1602179055503373ffffffffffffffffffffffffffffffffffffffff16827f27d0945fb3636f7a4272436530402ff31ba7a064fc919ac3cd28de806e88b27a60405160405180910390a35050565b600080fd5b600080fd5b6000819050919050565b61071981610706565b811461072457600080fd5b50565b60008135905061073681610710565b92915050565b600080fd5b600080fd5b600080fd5b60008083601f8401126107615761076061073c565b5b8235905067ffffffffffffffff81111561077e5761077d610741565b5b60208301915083600182028301111561079a57610799610746565b5b9250929050565b600080600080606085870312156107bb576107ba6106fc565b5b60006107c987828801610727565b94505060206107da87828801610727565b935050604085013567ffffffffffffffff8111156107fb576107fa610701565b5b6108078782880161074b565b925092505092959194509250565b60006020828403121561082b5761082a6106fc565b5b600061083984828501610727565b91505092915050565b61084b81610706565b82525050565b600081519050919050565b600082825260208201905092915050565b60005b8381101561088b578082015181840152602081019050610870565b60008484015250505050565b6000601f19601f8301169050919050565b60006108b382610851565b6108bd818561085c565b93506108cd81856020860161086d565b6108d681610897565b840191505092915050565b600073ffffffffffffffffffffffffffffffffffffffff82169050919050565b600061090c826108e1565b9050919050565b61091c81610901565b82525050565b7f4e487b7100000000000000000000000000000000000000000000000000000000600052602160045260246000fd5b6003811061096257610961610922565b5b50565b600081905061097382610951565b919050565b600061098382610965565b9050919050565b61099381610978565b82525050565b6000819050919050565b6109ac81610999565b82525050565b600060e0820190506109c7600083018a610842565b6109d46020830189610842565b81810360408301526109e681886108a8565b90506109f56060830187610913565b610a026080830186610913565b610a0f60a083018561098a565b610a1c60c08301846109a3565b98975050505050505050565b600060ff82169050919050565b610a3e81610a28565b82525050565b600060e082019050610a59600083018a610842565b610a666020830189610842565b8181036040830152610a7881886108a8565b9050610a876060830187610913565b610a946080830186610913565b610aa160a0830185610a35565b610aae60c08301846109a3565b98975050505050505050565b600082905092915050565b7f4e487b7100000000000000000000000000000000000000000000000000000000600052604160045260246000fd5b7f4e487b7100000000000000000000000000000000000000000000000000000000600052602260045260246000fd5b60006002820490506001821680610b3b57607f821691505b602082108103610b4e57610b4d610af4565b5b50919050565b60008190508160005260206000209050919050565b60006020601f8301049050919050565b600082821b905092915050565b600060088302610bb67fffffffffffffffffffffffffffffffffffffffffffffffffffffffffffffffff82610b79565b610bc08683610b79565b95508019841693508086168417925050509392505050565b6000819050919050565b6000610bfd610bf8610bf384610999565b610bd8565b610999565b9050919050565b6000819050919050565b610c1783610be2565b610c2b610c2382610c04565b848454610b86565b825550505050565b600090565b610c40610c33565b610c4b818484610c0e565b505050565b5b81811015610c6f57610c64600082610c38565b600181019050610c51565b5050565b601f821115610cb457610c8581610b54565b610c8e84610b69565b81016020851015610c9d578190505b610cb1610ca985610b69565b830182610c50565b50505b505050565b600082821c905092915050565b6000610cd760001984600802610cb9565b1980831691505092915050565b6000610cf08383610cc6565b9150826002028217905092915050565b610d0a8383610aba565b67ffffffffffffffff811115610d2357610d22610ac5565b5b610d2d8254610b23565b610d38828285610c73565b6000601f831160018114610d675760008415610d55578287013590505b610d5f8582610ce4565b865550610dc7565b601f198416610d7586610b54565b60005b82811015610d9d57848901358255600182019150602085019450602081019050610d78565b86831015610dba5784890135610db6601f891682610cc6565b8355505b6001600288020188555050505b50505050505050565b82818337600083830152505050565b6000610deb838561085c565b9350610df8838584610dd0565b610e0183610897565b840190509392505050565b6000604082019050610e216000830186610842565b8181036020830152610e34818486610ddf565b9050949350505050565b7f6e6f7420666f756e640000000000000000000000000000000000000000000000600082015250565b6000610e7460098361085c565b9150610e7f82610e3e565b602082019050919050565b60006020820190508181036000830152610ea381610e67565b905091905056fea26469706673582212205b45b032b954986ec1d7d19b26de9831a1f5d14b7189438d6d46e706dec9d11664736f6c63430008140033",
  "linkReferences": {},
  "deployedLinkReferences": {}
}