{
  "_format": "hh-sol-artifact-1",
  "contractName": "SimpleStore",
  "sourceName": "contracts/SimpleStore.sol",
  "abi": [
    {
      "anonymous": false,
      "inputs": [
        {
          "indexed": true,
          "internalType": "address",
          "name": "who",
          "type": "address"
        },
        {
          "indexed": false,
          "internalType": "string",
          "name": "name",
          "type": "string"
        }
      ],
      "name": "NameStored",
      "type": "event"
    },
    {
      "inputs": [
        {
          "internalType": "address",
          "name": "",
          "type": "address"
        }
      ],
      "name": "nameOf",
      "outputs": [
        {
          "internalType": "string",
          "name": "",
          "type": "string"
        }
      ],
      "stateMutability": "view",
      "type": "function"
    },
    {
      "inputs": [
        {
          "internalType": "address",
          "name": "who",
          "type": "address"
        }
      ],
      "name": "readName",
      "outputs": [
        {
          "internalType": "string",
          "name": "",
          "type": "string"
        }
      ],
      "stateMutability": "view",
      "type": "function"
    },
    {
      "inputs": [
        {
          "internalType": "string",
          "name": "_name",
          "type": "string"
        }
      ],
      "name": "storeName",
      "outputs": [],
      "stateMutability": "nonpayable",
      "type": "function"
    }
  ],
  "bytecode": "0x608060405234801561001057600080fd5b50610883806100206000396000f3fe608060405234801561001057600080fd5b50600436106100415760003560e01c8063063cfccb14610046578063806df95914610062578063f5c5738214610092575b600080fd5b610060600480360381019061005b9190610343565b6100c2565b005b61007c600480360381019061007791906103ee565b610164565b60405161008991906104ab565b60405180910390f35b6100ac60048036038101906100a791906103ee565b610234565b6040516100b991906104ab565b60405180910390f35b81816000803373ffffffffffffffffffffffffffffffffffffffff1673ffffffffffffffffffffffffffffffffffffffff168152602001908152602001600020918261010f92919061071d565b503373ffffffffffffffffffffffffffffffffffffffff167f5bc3817a8f34e159a358513fc07a7b1ef868bf50fecbb50cb0629c3dc77c9e7d8383604051610158929190610829565b60405180910390a25050565b60606000808373ffffffffffffffffffffffffffffffffffffffff1673ffffffffffffffffffffffffffffffffffffffff16815260200190815260200160002080546101af90610536565b80601f01602080910402602001604051908101604052809291908181526020018280546101db90610536565b80156102285780601f106101fd57610100808354040283529160200191610228565b820191906000526020600020905b81548152906001019060200180831161020b57829003601f168201915b50505050509050919050565b6000602052806000526040600020600091509050805461025390610536565b80601f016020809104026020016040519081016040528092919081815260200182805461027f90610536565b80156102cc5780601f106102a1576101008083540402835291602001916102cc565b820191906000526020600020905b8154815290600101906020018083116102af57829003601f168201915b505050505081565b600080fd5b600080fd5b600080fd5b600080fd5b600080fd5b60008083601f840112610303576103026102de565b5b8235905067ffffffffffffffff8111156103205761031f6102e3565b5b60208301915083600182028301111561033c5761033b6102e8565b5b9250929050565b6000806020838503121561035a576103596102d4565b5b600083013567ffffffffffffffff811115610378576103776102d9565b5b610384858286016102ed565b92509250509250929050565b600073ffffffffffffffffffffffffffffffffffffffff82169050919050565b60006103bb82610390565b9050919050565b6103cb816103b0565b81146103d657600080fd5b50565b6000813590506103e8816103c2565b92915050565b600060208284031215610404576104036102d4565b5b6000610412848285016103d9565b91505092915050565b600081519050919050565b600082825260208201905092915050565b60005b8381101561045557808201518184015260208101905061043a565b60008484015250505050565b6000601f19601f8301169050919050565b600061047d8261041b565b6104878185610426565b9350610497818560208601610437565b6104a081610461565b840191505092915050565b600060208201905081810360008301526104c58184610472565b905092915050565b600082905092915050565b7f4e487b7100000000000000000000000000000000000000000000000000000000600052604160045260246000fd5b7f4e487b7100000000000000000000000000000000000000000000000000000000600052602260045260246000fd5b6000600282049050600182168061054e57607f821691505b60208210810361056157610560610507565b5b50919050565b60008190508160005260206000209050919050565b60006020601f8301049050919050565b600082821b905092915050565b6000600883026105c97fffffffffffffffffffffffffffffffffffffffffffffffffffffffffffffffff8261058c565b6105d3868361058c565b95508019841693508086168417925050509392505050565b6000819050919050565b6000819050919050565b600061061a610615610610846105eb565b6105f5565b6105eb565b9050919050565b6000819050919050565b610634836105ff565b61064861064082610621565b848454610599565b825550505050565b600090565b61065d610650565b61066881848461062b565b505050565b5b8181101561068c57610681600082610655565b60018101905061066e565b5050565b601f8211156106d1576106a281610567565b6106ab8461057c565b810160208510156106ba578190505b6106ce6106c68561057c565b83018261066d565b50505b505050565b600082821c905092915050565b60006106f4600019846008026106d6565b1980831691505092915050565b600061070d83836106e3565b9150826002028217905092915050565b61072783836104cd565b67ffffffffffffffff8111156107405761073f6104d8565b5b61074a8254610536565b610755828285610690565b6000601f8311600181146107845760008415610772578287013590505b61077c8582610701565b8655506107e4565b601f19841661079286610567565b60005b828110156107ba57848901358255600182019150602085019450602081019050610795565b868310156107d757848901356107d3601f8916826106e3565b8355505b6001600288020188555050505b50505050505050565b82818337600083830152505050565b60006108088385610426565b93506108158385846107ed565b61081e83610461565b840190509392505050565b600060208201905081810360008301526108448184866107fc565b9050939250505056fea264697066735822122062e47b000b510f03632f737fbc34229b3b4239893d0c04f4e3147dc63e0b1d6664736f6c63430008110033",
  "linkReferences": {},
  "deployedLinkReferences": {}
}